{
  "_format": "hh-sol-artifact-1",
  "contractName": "Meeting",
  "sourceName": "contracts/YummyMeeting.sol",
  "abi": [
    {
      "inputs": [],
      "stateMutability": "nonpayable",
      "type": "constructor"
    },
    {
      "inputs": [
        {
          "internalType": "string",
          "name": "title",
          "type": "string"
        },
        {
          "internalType": "uint256",
          "name": "startTime",
          "type": "uint256"
        },
        {
          "internalType": "uint256",
          "name": "endTime",
          "type": "uint256"
        }
      ],
      "name": "createAppointment",
      "outputs": [],
      "stateMutability": "payable",
      "type": "function"
    },
    {
      "inputs": [],
      "name": "getAppoinments",
      "outputs": [
        {
          "components": [
            {
              "internalType": "string",
              "name": "title",
              "type": "string"
            },
            {
              "internalType": "address",
              "name": "attendee",
              "type": "address"
            },
            {
              "internalType": "uint256",
              "name": "startTime",
              "type": "uint256"
            },
            {
              "internalType": "uint256",
              "name": "endTime",
              "type": "uint256"
            },
            {
              "internalType": "uint256",
              "name": "amountPaid",
              "type": "uint256"
            }
          ],
          "internalType": "struct Meeting.Appointment[]",
          "name": "",
          "type": "tuple[]"
        }
      ],
      "stateMutability": "view",
      "type": "function"
    },
    {
      "inputs": [],
      "name": "getRate",
      "outputs": [
        {
          "internalType": "uint256",
          "name": "",
          "type": "uint256"
        }
      ],
      "stateMutability": "view",
      "type": "function"
    },
    {
      "inputs": [],
      "name": "owner",
      "outputs": [
        {
          "internalType": "address payable",
          "name": "",
          "type": "address"
        }
      ],
      "stateMutability": "view",
      "type": "function"
    },
    {
      "inputs": [
        {
          "internalType": "uint256",
          "name": "_rate",
          "type": "uint256"
        }
      ],
      "name": "setRate",
      "outputs": [],
      "stateMutability": "nonpayable",
      "type": "function"
    }
  ],
  "bytecode": "0x608060405234801561001057600080fd5b50600180546001600160a01b03191633179055610834806100326000396000f3fe60806040526004361061004a5760003560e01c806334fcf4371461004f57806359c35bdf14610071578063679aefce146100845780638da5cb5b146100af5780639206b230146100d1575b600080fd5b34801561005b57600080fd5b5061006f61006a3660046105ac565b6100f3565b005b61006f61007f3660046104fc565b6100f8565b34801561009057600080fd5b506100996102ee565b6040516100a69190610708565b60405180910390f35b3480156100bb57600080fd5b506100c46102f4565b6040516100a691906105e3565b3480156100dd57600080fd5b506100e6610303565b6040516100a691906105f7565b600055565b3360028460405161010991906105c4565b90815260405190819003602001902080546001600160a01b03929092166001600160a01b031990921691909117905561014061042b565b8381526040516002906101549086906105c4565b9081526040805160209281900383019020546001600160a01b031691830191909152810183905260608101829052600054603c6101918585610750565b61019b9190610711565b6101a59190610731565b608082018190523410156101d45760405162461bcd60e51b81526004016101cb906106dc565b60405180910390fd5b6001546040516000916001600160a01b03169034906101f2906105e0565b60006040518083038185875af1925050503d806000811461022f576040519150601f19603f3d011682016040523d82523d6000602084013e610234565b606091505b50509050806102555760405162461bcd60e51b81526004016101cb906106ae565b600380546001810182556000919091528251805184926005027fc2575a0e9e593c00f959f8c92f12db2869c3395a3b0502d05e2516446f71f85b01916102a091839160200190610463565b5060208201516001820180546001600160a01b0319166001600160a01b0390921691909117905560408201516002820155606082015160038201556080909101516004909101555050505050565b60005490565b6001546001600160a01b031681565b60606003805480602002602001604051908101604052809291908181526020016000905b8282101561042257838290600052602060002090600502016040518060a001604052908160008201805461035a90610797565b80601f016020809104026020016040519081016040528092919081815260200182805461038690610797565b80156103d35780601f106103a8576101008083540402835291602001916103d3565b820191906000526020600020905b8154815290600101906020018083116103b657829003601f168201915b50505091835250506001828101546001600160a01b0316602080840191909152600284015460408401526003840154606084015260049093015460809092019190915291835292019101610327565b50505050905090565b6040518060a001604052806060815260200160006001600160a01b031681526020016000815260200160008152602001600081525090565b82805461046f90610797565b90600052602060002090601f01602090048101928261049157600085556104d7565b82601f106104aa57805160ff19168380011785556104d7565b828001600101855582156104d7579182015b828111156104d75782518255916020019190600101906104bc565b506104e39291506104e7565b5090565b5b808211156104e357600081556001016104e8565b600080600060608486031215610510578283fd5b833567ffffffffffffffff80821115610527578485fd5b818601915086601f83011261053a578485fd5b813560208282111561054e5761054e6107e8565b604051601f8301601f1916810182018481118282101715610571576105716107e8565b60405282815284830182018a1015610587578788fd5b8282860183830137918201810196909652979486013596505050604090930135925050565b6000602082840312156105bd578081fd5b5035919050565b600082516105d6818460208701610767565b9190910192915050565b90565b6001600160a01b0391909116815260200190565b60208082528251828201819052600091906040908185019080840286018301878501865b838110156106a057603f19898403018552815160a081518186528051808388015260c0925061064f818489018d8501610767565b8a8401516001600160a01b0316878c0152898401518a88015260608085015190880152608093840151938701939093525095880195601f909101601f1916909301909201919086019060010161061b565b509098975050505050505050565b6020808252601490820152732330b4b632b2103a379039b2b7321022ba3432b960611b604082015260600190565b602080825260129082015271546f70757020796f75722062616c616e636560701b604082015260600190565b90815260200190565b60008261072c57634e487b7160e01b81526012600452602481fd5b500490565b600081600019048311821515161561074b5761074b6107d2565b500290565b600082821015610762576107626107d2565b500390565b60005b8381101561078257818101518382015260200161076a565b83811115610791576000848401525b50505050565b6002810460018216806107ab57607f821691505b602082108114156107cc57634e487b7160e01b600052602260045260246000fd5b50919050565b634e487b7160e01b600052601160045260246000fd5b634e487b7160e01b600052604160045260246000fdfea2646970667358221220791cc0f3602f41f871247f4e8ee668cea4e0da75e936a3df6bc07bd7c007982d64736f6c63430008000033",
  "linkReferences": {},
  "deployedLinkReferences": {}
}